{
  "contractName": "Concat",
  "abi": [
    {
      "inputs": [],
      "payable": false,
      "stateMutability": "nonpayable",
      "type": "constructor"
    },
    {
      "constant": false,
      "inputs": [
        {
          "name": "a",
          "type": "string"
        },
        {
          "name": "b",
          "type": "string"
        }
      ],
      "name": "concat",
      "outputs": [
        {
          "name": "",
          "type": "string"
        }
      ],
      "payable": false,
      "stateMutability": "nonpayable",
      "type": "function"
    }
  ],
  "bytecode": "0x6060604052341561000f57600080fd5b6103788061001e6000396000f300606060405260043610610041576000357c0100000000000000000000000000000000000000000000000000000000900463ffffffff16806389c19ddb14610046575b600080fd5b341561005157600080fd5b6100e4600480803590602001908201803590602001908080601f0160208091040260200160405190810160405280939291908181526020018383808284378201915050505050509190803590602001908201803590602001908080601f0160208091040260200160405190810160405280939291908181526020018383808284378201915050505050509190505061015f565b6040518080602001828103825283818151815260200191508051906020019080838360005b83811015610124578082015181840152602081019050610109565b50505050905090810190601f1680156101515780820380516001836020036101000a031916815260200191505b509250505060405180910390f35b610167610324565b61016f610338565b610177610338565b61017f610338565b600086935085925082518451016040518059106101995750595b9080825280601f01601f19166020018201604052509150600090505b83518110156102625783818151811015156101cc57fe5b9060200101517f010000000000000000000000000000000000000000000000000000000000000090047f010000000000000000000000000000000000000000000000000000000000000002828281518110151561022557fe5b9060200101907effffffffffffffffffffffffffffffffffffffffffffffffffffffffffffff1916908160001a90535080806001019150506101b5565b600090505b825181101561031757828181518110151561027e57fe5b9060200101517f010000000000000000000000000000000000000000000000000000000000000090047f01000000000000000000000000000000000000000000000000000000000000000282855183018151811015156102da57fe5b9060200101907effffffffffffffffffffffffffffffffffffffffffffffffffffffffffffff1916908160001a9053508080600101915050610267565b8194505050505092915050565b602060405190810160405280600081525090565b6020604051908101604052806000815250905600a165627a7a72305820e09072e845a10e8a814f0c7383ed8321638285722c6a29f0865b90abe0d9fe980029",
  "source": "pragma solidity ^0.4.19;\n\ncontract Concat {\n\n    function Concat() public {}\n\n    function concat(string a, string b) returns (string) {\n        bytes memory _ba = bytes(a);\n        bytes memory _bb = bytes(b);\n        bytes memory newString = bytes(new string(_ba.length + _bb.length));\n        for (uint i = 0; i < _ba.length; i++) newString[i] = _ba[i];\n        for (i = 0; i < _bb.length; i++) newString[i + _ba.length] = _bb[i];\n\n        return string(newString);\n\n    }\n}\n",
  "sourcePath": "/Users/varunagarwal/Desktop/hello/contracts/Concat.sol",
  "compiler": {
    "name": "solc",
    "version": "0.4.19+commit.c4cbbb05.Emscripten.clang"
  },
  "schemaVersion": "1.0.1",
  "updatedAt": "2018-02-22T23:14:21.863Z"
}