{
  "contractName": "Fibonacci",
  "abi": [
    {
      "inputs": [],
      "payable": false,
      "stateMutability": "nonpayable",
      "type": "constructor"
    },
    {
      "constant": false,
      "inputs": [],
      "name": "next",
      "outputs": [
        {
          "name": "",
          "type": "uint256"
        }
      ],
      "payable": false,
      "stateMutability": "nonpayable",
      "type": "function"
    }
  ],
  "bytecode": "0x60606040523415600e57600080fd5b600080819055506001808190555060be8061002a6000396000f300606060405260043610603f576000357c0100000000000000000000000000000000000000000000000000000000900463ffffffff1680634c8fe526146044575b600080fd5b3415604e57600080fd5b6054606a565b6040518082815260200191505060405180910390f35b60008060005490506001546000819055508060016000828254019250508190555080915050905600a165627a7a723058205ba2a57262c600909e1256f57cc3e860053132053aa0e913b7fd87dc35e72c4b0029",
  "source": "pragma solidity ^0.4.19;\n\ncontract Fibonacci {\n    uint a;\n    uint b;\n\n    function Fibonacci() public {\n        a = 0;\n        b = 1;\n    }\n\n    function next() public returns (uint) {\n        uint prevA = a;\n        a = b;\n        b += prevA;\n\n        return prevA;\n    }\n}\n",
  "sourcePath": "/Users/varunagarwal/Desktop/hello/contracts/Fibonacci.sol",
  "compiler": {
    "name": "solc",
    "version": "0.4.19+commit.c4cbbb05.Emscripten.clang"
  },
  "schemaVersion": "1.0.1",
  "updatedAt": "2018-02-22T23:18:07.686Z"
}