{
  "contractName": "XOR",
  "abi": [
    {
      "inputs": [],
      "payable": false,
      "stateMutability": "nonpayable",
      "type": "constructor"
    },
    {
      "constant": false,
      "inputs": [
        {
          "name": "a",
          "type": "string"
        },
        {
          "name": "b",
          "type": "string"
        }
      ],
      "name": "calc",
      "outputs": [
        {
          "name": "",
          "type": "bool"
        }
      ],
      "payable": false,
      "stateMutability": "nonpayable",
      "type": "function"
    }
  ],
  "bytecode": "0x6060604052341561000f57600080fd5b6102048061001e6000396000f300606060405260043610610041576000357c0100000000000000000000000000000000000000000000000000000000900463ffffffff168063d678d18914610046575b600080fd5b341561005157600080fd5b6100e4600480803590602001908201803590602001908080601f0160208091040260200160405190810160405280939291908181526020018383808284378201915050505050509190803590602001908201803590602001908080601f016020809104026020016040519081016040528093929190818152602001838380828437820191505050505050919050506100fe565b604051808215151515815260200191505060405180910390f35b6000816040518082805190602001908083835b6020831015156101365780518252602082019150602081019050602083039250610111565b6001836020036101000a038019825116818451168082178552505050505050905001915050604051809103902060001916836040518082805190602001908083835b60208310151561019d5780518252602082019150602081019050602083039250610178565b6001836020036101000a03801982511681845116808217855250505050505090500191505060405180910390206000191614159050929150505600a165627a7a723058205af19fa54c10e9ba64c4c7f78c3585733bc699eefadb155d4e97a62014e6feee0029",
  "source": "pragma solidity ^0.4.19;\n\ncontract XOR {\n\n    function XOR() public {}\n\n    function calc(string a, string b) returns (bool) {\n        return sha3(a) != sha3(b);\n    }\n}\n",
  "sourcePath": "/Users/varunagarwal/Desktop/hello/contracts/XOR.sol",
  "compiler": {
    "name": "solc",
    "version": "0.4.19+commit.c4cbbb05.Emscripten.clang"
  },
  "schemaVersion": "1.0.1",
  "updatedAt": "2018-02-22T23:14:21.863Z"
}